:020000040000FA
:0400000079EF01F0A3
:08000800056ED8CF06F0E950A7
:10001000076EEA50086EE150096EE2500A6ED95040
:100020000B6EDA500C6EF350146EF450156EE050F7
:100030000D6E000100500F6E0150106E0250116ED7
:100040000350126E0450136EF2A82AEF00F0F2B2C1
:1000500051EF00F0F0A630EF00F0F0B056EF00F0F6
:100060000F50006E1050016E1150026E1250036E50
:100070001350046E0D50E06E0D8E0750E96E08505F
:10008000EA6E0950E16E0A50E26E0B50D96E0C50C8
:10009000DA6E1450F36E1550F46E055006C0D8FF9A
:1000A00010001D801D92F29230EF00F01D901D8215
:1000B000F09030EF00F03750210803E196928D82E6
:1000C00002D096908D8092948994956A38C08CFF66
:1000D00092908980030E006E002EFED79290899038
:1000E00096928D9296908D90000C316A315007084F
:1000F00038E392928992210E376E400E386EDBDF24
:10010000200E376E400E386ED6DF3150B809336E90
:10011000210E376E33C038F0CEDF3150B809336E60
:10012000200E376E33C038F0C6DF92928982326A71
:1001300032503F0814E33050FF0DF3CF33F0210E5F
:10014000376E33C038F0B7DF3050FF0DF3CF33F0E8
:10015000200E376E33C038F0AEDF322AE9D7312AAD
:10016000C5D7F4EF00F09296898692908990969286
:100170008D9296908D9092928992210E376EC00E3C
:10018000386E99DF200E376EC00E386E94DF210E68
:10019000376E400E386E8FDF200E376E400E386E91
:1001A0008ADF210E376EB80E386E85DF200E376E6F
:1001B000B80E386E80DF2F2C0BD0210E376E3F0E1D
:1001C000386E79DF200E376E3F0E386E74DF0AD03E
:1001D000210E376E3E0E386E6EDF200E376E3E0EED
:1001E000386E69DF306A81D7ADEF01F034502108F5
:1001F00003E196928D8202D096908D80FF0E956ECF
:100200009294898492908980030E006E002EFED70E
:1002100092908990030E006E002EFED792908980F6
:10022000030E006E002EFED7FF0E956E83CF35F0C5
:100230009290899096928D9296908D9035C001F013
:1002400047EF01F0210E336E2F503F0804E2400EBD
:100250002F5E200E336E929289922F9E2F8C33C088
:1002600037F02FC038F027DF3030006E0032003218
:100270001F0E00160050BF0BB809366E33C037F0A2
:10028000386E19DF9292898233C034F0AFD701C043
:1002900032F0312C0FD03050070B346E010E006E4F
:1002A0003450016E04E0D8900036012EFCD7005087
:1002B00032120FD03050070B346E010E006E3450E6
:1002C000016E04E0D8900036012EFCD70050FF0AE2
:1002D00032169292899233C037F02FC038F0EBDE9D
:1002E0009292898233C037F032C038F0E4DEEDEF0D
:1002F00001F0F86AD09E0D8EEA6AE96AC150C00B1F
:100300000F09C16E070EB46EB450A19CB896810E51
:10031000AF6E260EAC6E900EAB6E176A186A010EA9
:10032000196E1A6A1B6A1C6A1D901D92266A276A3A
:10033000286A296A1D901D921D941D961D981D9A6C
:10034000F19CF19AF288F086C00EF212939E8A9E7A
:10035000939C8A9C010E2F6E06D79EAA33D09EAA2C
:10036000FED7AECF2EF02E507A0803E1939E8A8EF0
:1003700029D02E50780806E11DB404D01DB602D055
:100380001D8420D02E50790806E11DB404D01DB67E
:1003900002D01D8617D02E50610802E11D8412D0B4
:1003A0002E50620802E11D860DD01DA405D02EC07E
:1003B00026F01D941D8806D01DA604D02EC027F05F
:1003C0001D961D8A1DA80BD01DAA09D026C02FF08E
:1003D00027C030F0010E316E35D71D981D9A1DA033
:1003E00006D0070E9EA8FED7AD6E1D9007D01DA2A9
:1003F00005D0080E9EA8FED7AD6E1D92AED70300A5
:020000040030CA
:0E00000000021F1E008381000FC00FE00F40A2
:00000001FF
;PIC18F4620
